:020000040800F2
:100000000000012099030008D9030008D903000863
:10001000D9030008D9030008D90300080000000034
:10002000000000000000000000000000D9030008EC
:10003000D903000800000000D9030008D903000814
:10004000D9030008D9030008D9030008D903000820
:10005000D9030008D9030008D9030008D903000810
:10006000D9030008D9030008D9030008D903000800
:10007000D9030008D9030008D9030008D9030008F0
:10008000D9030008D9030008D9030008D9030008E0
:10009000D9030008D9030008D9030008D9030008D0
:1000A000D9030008D9030008D9030008D9030008C0
:1000B000D9030008D9030008D9030008D9030008B0
:1000C000D9030008D9030008D9030008D9030008A0
:1000D000D9030008D9030008D9030008D903000890
:1000E000D9030008D9030008D9030008D903000880
:1000F000D9030008D9030008D9030008D903000870
:10010000D9030008D9030008D9030008D90300085F
:10011000D9030008D9030008D9030008D90300084F
:10012000D9030008D9030008D9030008D90300083F
:1001300000000000000000000000000000000000BF
:1001400000000000000000000000000000000000AF
:10015000000000000000000000000000000000009F
:10016000000000000000000000000000000000008F
:10017000000000000000000000000000000000007F
:10018000000000000000000000000000000000006F
:10019000000000000000000000000000000000005F
:1001A000000000000000000000000000000000004F
:1001B000000000000000000000000000000000003F
:1001C000000000000000000000000000000000002F
:1001D000000000000000000000000000000000001F
:0401E0005FF8E0F1F3
:1001E40010B5054C237833B9044B13B10448AFF36D
:1001F40000800123237010BD0000002000000000D7
:10020400DC03000808B5034B1BB103490348AFF3F3
:10021400008008BD0000000004000020DC0300088A
:1002240008B5092000F07CF8482000F025F80F4AB2
:10023400936943F0040393610D4B1A6822F47062CE
:100244001A601A6842F440721A600A4C0023C4F817
:1002540088314FF47A7000F025F80123C4F888310E
:100264004FF47A7000F01EF8EFE700BF0010024070
:1002740000080140000021424FF0E022136923F0FE
:1002840004031361C008054B1870C0EB401300EB66
:100294008300C000024B1880704700BF1E0000207E
:1002A4001C0000200B4B1B8803FB00F04FF0E023E5
:1002B400586100229A6101221A614FF0E0231B6900
:1002C40003F00113012BF8D04FF0E02300221A6150
:1002D4009A6170471C0000200F4B00221A61DA60FB
:1002E400142159619A61DA61196841F001011960B8
:1002F40058680A4901405960196821F0847121F451
:1003040080311960196821F480211960596821F439
:10031400FE0159609A607047001002400000FFF827
:1003240010B50446FFF7D8FF184A136843F4803326
:100334001360164B1B685B0CFBD0144B4FF48062AC
:100344005A60023CE4B25A6842EA84445C605A68E7
:1003540042F480325A600E490A6842F032020A605E
:100364001A6842F080721A60084B1B685B0EFBD05F
:10037400064A536843F002035360002303E0034B2F
:100384005B68C3F38103022BF9D110BD0010024056
:1003940000200240002103E0094B5B584350043124
:1003A4000848094B42189A42F6D3084A02E000234F
:1003B40042F8043B064B9A42F9D3FFF731FF7047EA
:1003C400FC030008000000200000002000000020C2
:1003D40020000020FEE70000F8B500BFF8BC08BC10
:1003E4009E467047F8B500BFF8BC08BC9E467047EF
:0403F40009020008F2
:0403F800E501000813
:040000050800039953
:00000001FF
